{
  "contractName": "appen",
  "abi": [
    {
      "inputs": [
        {
          "internalType": "uint256",
          "name": "",
          "type": "uint256"
        }
      ],
      "name": "jsonData",
      "outputs": [
        {
          "internalType": "uint256",
          "name": "id",
          "type": "uint256"
        },
        {
          "internalType": "string",
          "name": "name",
          "type": "string"
        }
      ],
      "stateMutability": "view",
      "type": "function",
      "constant": true
    },
    {
      "inputs": [
        {
          "internalType": "uint256",
          "name": "_id",
          "type": "uint256"
        },
        {
          "internalType": "string",
          "name": "_name",
          "type": "string"
        }
      ],
      "name": "storeData",
      "outputs": [],
      "stateMutability": "nonpayable",
      "type": "function"
    },
    {
      "inputs": [],
      "name": "getAllData",
      "outputs": [
        {
          "components": [
            {
              "internalType": "uint256",
              "name": "id",
              "type": "uint256"
            },
            {
              "internalType": "string",
              "name": "name",
              "type": "string"
            }
          ],
          "internalType": "struct appen.MyData[]",
          "name": "",
          "type": "tuple[]"
        }
      ],
      "stateMutability": "view",
      "type": "function",
      "constant": true
    },
    {
      "inputs": [],
      "name": "jsonDataLength",
      "outputs": [
        {
          "internalType": "uint256",
          "name": "",
          "type": "uint256"
        }
      ],
      "stateMutability": "view",
      "type": "function",
      "constant": true
    }
  ],
  "bytecode": "0x608060405234801561001057600080fd5b50610871806100206000396000f3fe608060405234801561001057600080fd5b506004361061004c5760003560e01c80632d10fa281461005157806349dc09841461006f578063bf4fe9871461008b578063e1f2c064146100bc575b600080fd5b6100596100da565b6040516100669190610603565b60405180910390f35b61008960048036038101906100849190610459565b6101d5565b005b6100a560048036038101906100a09190610430565b610248565b6040516100b3929190610640565b60405180910390f35b6100c4610304565b6040516100d19190610625565b60405180910390f35b60606000805480602002602001604051908101604052809291908181526020016000905b828210156101cc57838290600052602060002090600202016040518060400160405290816000820154815260200160018201805461013b90610783565b80601f016020809104026020016040519081016040528092919081815260200182805461016790610783565b80156101b45780601f10610189576101008083540402835291602001916101b4565b820191906000526020600020905b81548152906001019060200180831161019757829003601f168201915b505050505081525050815260200190600101906100fe565b50505050905090565b600060405180604001604052808481526020018381525090506000819080600181540180825580915050600190039060005260206000209060020201600090919091909150600082015181600001556020820151816001019080519060200190610240929190610310565b505050505050565b6000818154811061025857600080fd5b906000526020600020906002020160009150905080600001549080600101805461028190610783565b80601f01602080910402602001604051908101604052809291908181526020018280546102ad90610783565b80156102fa5780601f106102cf576101008083540402835291602001916102fa565b820191906000526020600020905b8154815290600101906020018083116102dd57829003601f168201915b5050505050905082565b60008080549050905090565b82805461031c90610783565b90600052602060002090601f01602090048101928261033e5760008555610385565b82601f1061035757805160ff1916838001178555610385565b82800160010185558215610385579182015b82811115610384578251825591602001919060010190610369565b5b5090506103929190610396565b5090565b5b808211156103af576000816000905550600101610397565b5090565b60006103c66103c1846106a1565b610670565b9050828152602081018484840111156103de57600080fd5b6103e9848285610741565b509392505050565b600082601f83011261040257600080fd5b81356104128482602086016103b3565b91505092915050565b60008135905061042a81610824565b92915050565b60006020828403121561044257600080fd5b60006104508482850161041b565b91505092915050565b6000806040838503121561046c57600080fd5b600061047a8582860161041b565b925050602083013567ffffffffffffffff81111561049757600080fd5b6104a3858286016103f1565b9150509250929050565b60006104b983836105a8565b905092915050565b60006104cc826106e1565b6104d68185610704565b9350836020820285016104e8856106d1565b8060005b85811015610524578484038952815161050585826104ad565b9450610510836106f7565b925060208a019950506001810190506104ec565b50829750879550505050505092915050565b6000610541826106ec565b61054b8185610715565b935061055b818560208601610750565b61056481610813565b840191505092915050565b600061057a826106ec565b6105848185610726565b9350610594818560208601610750565b61059d81610813565b840191505092915050565b60006040830160008301516105c060008601826105e5565b50602083015184820360208601526105d88282610536565b9150508091505092915050565b6105ee81610737565b82525050565b6105fd81610737565b82525050565b6000602082019050818103600083015261061d81846104c1565b905092915050565b600060208201905061063a60008301846105f4565b92915050565b600060408201905061065560008301856105f4565b8181036020830152610667818461056f565b90509392505050565b6000604051905081810181811067ffffffffffffffff82111715610697576106966107e4565b5b8060405250919050565b600067ffffffffffffffff8211156106bc576106bb6107e4565b5b601f19601f8301169050602081019050919050565b6000819050602082019050919050565b600081519050919050565b600081519050919050565b6000602082019050919050565b600082825260208201905092915050565b600082825260208201905092915050565b600082825260208201905092915050565b6000819050919050565b82818337600083830152505050565b60005b8381101561076e578082015181840152602081019050610753565b8381111561077d576000848401525b50505050565b6000600282049050600182168061079b57607f821691505b602082108114156107af576107ae6107b5565b5b50919050565b7f4e487b7100000000000000000000000000000000000000000000000000000000600052602260045260246000fd5b7f4e487b7100000000000000000000000000000000000000000000000000000000600052604160045260246000fd5b6000601f19601f8301169050919050565b61082d81610737565b811461083857600080fd5b5056fea2646970667358221220e3b9bc0453c65eec889971c16a49692696093cd9027f54eae30b09e0e7840c2264736f6c63430008000033",
  "immutableReferences": {},
  "source": "pragma solidity ^0.8.0;\r\n\r\ncontract appen {\r\n    struct MyData {\r\n        uint256 id;\r\n        string name;\r\n    }\r\n\r\n    MyData[] public jsonData;\r\n\r\n    function storeData(uint256 _id, string memory _name) public {\r\n        MyData memory newData = MyData(_id, _name);\r\n        jsonData.push(newData);\r\n    }\r\n\r\n    function getAllData() public view returns (MyData[] memory) {\r\n        return jsonData;\r\n    }\r\n\r\n    function jsonDataLength() public view returns (uint256) {\r\n        return jsonData.length;\r\n    }\r\n}",
  "sourcePath": "D:\\S8\\contracts\\appen.sol",
  "compiler": {
    "name": "solc",
    "version": "0.8.0+commit.c7dfd78e.Emscripten.clang"
  },
  "schemaVersion": "3.4.16",
  "updatedAt": "2024-03-01T07:48:01.106Z",
  "networkType": "ethereum",
  "devdoc": {
    "kind": "dev",
    "methods": {},
    "version": 1
  },
  "userdoc": {
    "kind": "user",
    "methods": {},
    "version": 1
  }
}