{
  "contractName": "cred",
  "abi": [
    {
      "inputs": [],
      "stateMutability": "nonpayable",
      "type": "constructor"
    },
    {
      "inputs": [
        {
          "internalType": "uint256",
          "name": "",
          "type": "uint256"
        }
      ],
      "name": "credentials",
      "outputs": [
        {
          "internalType": "string",
          "name": "email",
          "type": "string"
        },
        {
          "internalType": "string",
          "name": "password",
          "type": "string"
        }
      ],
      "stateMutability": "view",
      "type": "function",
      "constant": true
    },
    {
      "inputs": [
        {
          "internalType": "string",
          "name": "_email",
          "type": "string"
        },
        {
          "internalType": "string",
          "name": "_password",
          "type": "string"
        }
      ],
      "name": "isCredentialValid",
      "outputs": [
        {
          "internalType": "bool",
          "name": "",
          "type": "bool"
        }
      ],
      "stateMutability": "view",
      "type": "function",
      "constant": true
    }
  ],
  "bytecode": "0x608060405234801561001057600080fd5b50600060405180604001604052806040518060400160405280601181526020017f646f63746f723140676d61696c2e636f6d00000000000000000000000000000081525081526020016040518060400160405280600981526020017f70617373776f7264310000000000000000000000000000000000000000000000815250815250908060018154018082558091505060019003906000526020600020906002020160009091909190915060008201518160000190805190602001906100d79291906101e2565b5060208201518160010190805190602001906100f49291906101e2565b505050600060405180604001604052806040518060400160405280601181526020017f646f63746f723240676d61696c2e636f6d00000000000000000000000000000081525081526020016040518060400160405280600981526020017f70617373776f7264320000000000000000000000000000000000000000000000815250815250908060018154018082558091505060019003906000526020600020906002020160009091909190915060008201518160000190805190602001906101bd9291906101e2565b5060208201518160010190805190602001906101da9291906101e2565b5050506102e6565b8280546101ee90610285565b90600052602060002090601f0160209004810192826102105760008555610257565b82601f1061022957805160ff1916838001178555610257565b82800160010185558215610257579182015b8281111561025657825182559160200191906001019061023b565b5b5090506102649190610268565b5090565b5b80821115610281576000816000905550600101610269565b5090565b6000600282049050600182168061029d57607f821691505b602082108114156102b1576102b06102b7565b5b50919050565b7f4e487b7100000000000000000000000000000000000000000000000000000000600052602260045260246000fd5b610878806102f56000396000f3fe608060405234801561001057600080fd5b50600436106100365760003560e01c80639ef015d91461003b578063e0574e3f1461006b575b600080fd5b610055600480360381019061005091906104bb565b61009c565b60405161006291906105e0565b60405180910390f35b61008560048036038101906100809190610527565b6102a1565b6040516100939291906105fb565b60405180910390f35b600080600090505b6000805490508110156102955761018e600082815481106100ee577f4e487b7100000000000000000000000000000000000000000000000000000000600052603260045260246000fd5b9060005260206000209060020201600001805461010a90610712565b80601f016020809104026020016040519081016040528092919081815260200182805461013690610712565b80156101835780601f1061015857610100808354040283529160200191610183565b820191906000526020600020905b81548152906001019060200180831161016657829003601f168201915b5050505050856103e5565b80156102735750610272600082815481106101d2577f4e487b7100000000000000000000000000000000000000000000000000000000600052603260045260246000fd5b906000526020600020906002020160010180546101ee90610712565b80601f016020809104026020016040519081016040528092919081815260200182805461021a90610712565b80156102675780601f1061023c57610100808354040283529160200191610267565b820191906000526020600020905b81548152906001019060200180831161024a57829003601f168201915b5050505050846103e5565b5b1561028257600191505061029b565b808061028d90610744565b9150506100a4565b50600090505b92915050565b600081815481106102b157600080fd5b90600052602060002090600202016000915090508060000180546102d490610712565b80601f016020809104026020016040519081016040528092919081815260200182805461030090610712565b801561034d5780601f106103225761010080835404028352916020019161034d565b820191906000526020600020905b81548152906001019060200180831161033057829003601f168201915b50505050509080600101805461036290610712565b80601f016020809104026020016040519081016040528092919081815260200182805461038e90610712565b80156103db5780601f106103b0576101008083540402835291602001916103db565b820191906000526020600020905b8154815290600101906020018083116103be57829003601f168201915b5050505050905082565b6000816040516020016103f891906105c9565b604051602081830303815290604052805190602001208360405160200161041f91906105c9565b6040516020818303038152906040528051906020012014905092915050565b600061045161044c84610663565b610632565b90508281526020810184848401111561046957600080fd5b6104748482856106d0565b509392505050565b600082601f83011261048d57600080fd5b813561049d84826020860161043e565b91505092915050565b6000813590506104b58161082b565b92915050565b600080604083850312156104ce57600080fd5b600083013567ffffffffffffffff8111156104e857600080fd5b6104f48582860161047c565b925050602083013567ffffffffffffffff81111561051157600080fd5b61051d8582860161047c565b9150509250929050565b60006020828403121561053957600080fd5b6000610547848285016104a6565b91505092915050565b610559816106ba565b82525050565b600061056a82610693565b610574818561069e565b93506105848185602086016106df565b61058d8161081a565b840191505092915050565b60006105a382610693565b6105ad81856106af565b93506105bd8185602086016106df565b80840191505092915050565b60006105d58284610598565b915081905092915050565b60006020820190506105f56000830184610550565b92915050565b60006040820190508181036000830152610615818561055f565b90508181036020830152610629818461055f565b90509392505050565b6000604051905081810181811067ffffffffffffffff82111715610659576106586107eb565b5b8060405250919050565b600067ffffffffffffffff82111561067e5761067d6107eb565b5b601f19601f8301169050602081019050919050565b600081519050919050565b600082825260208201905092915050565b600081905092915050565b60008115159050919050565b6000819050919050565b82818337600083830152505050565b60005b838110156106fd5780820151818401526020810190506106e2565b8381111561070c576000848401525b50505050565b6000600282049050600182168061072a57607f821691505b6020821081141561073e5761073d6107bc565b5b50919050565b600061074f826106c6565b91507fffffffffffffffffffffffffffffffffffffffffffffffffffffffffffffffff8214156107825761078161078d565b5b600182019050919050565b7f4e487b7100000000000000000000000000000000000000000000000000000000600052601160045260246000fd5b7f4e487b7100000000000000000000000000000000000000000000000000000000600052602260045260246000fd5b7f4e487b7100000000000000000000000000000000000000000000000000000000600052604160045260246000fd5b6000601f19601f8301169050919050565b610834816106c6565b811461083f57600080fd5b5056fea2646970667358221220fde4f540e9a9836e1ca7a81b1fcd5adee52a7bdb6d4776f9ca02202f80d85f1764736f6c63430008000033",
  "immutableReferences": {},
  "source": "pragma solidity ^0.8.0;\r\n\r\ncontract cred {\r\n    struct Credential {\r\n        string email;\r\n        string password;\r\n    }\r\n    \r\n    Credential[] public credentials;\r\n\r\n    constructor() {\r\n        credentials.push(Credential(\"doctor1@gmail.com\", \"password1\"));\r\n        credentials.push(Credential(\"doctor2@gmail.com\", \"password2\"));\r\n    }\r\n\r\n    function isCredentialValid(string memory _email, string memory _password) public view returns (bool) {\r\n        for (uint i = 0; i < credentials.length; i++) {\r\n            if (compareStrings(credentials[i].email, _email) && compareStrings(credentials[i].password, _password)) {\r\n                return true;\r\n            }\r\n        }\r\n        return false;\r\n    }\r\n\r\n    function compareStrings(string memory a, string memory b) internal pure returns (bool) {\r\n        return (keccak256(abi.encodePacked((a))) == keccak256(abi.encodePacked((b))));\r\n    }\r\n}\r\n",
  "sourcePath": "D:\\S8\\contracts\\cred.sol",
  "compiler": {
    "name": "solc",
    "version": "0.8.0+commit.c7dfd78e.Emscripten.clang"
  },
  "schemaVersion": "3.4.16",
  "updatedAt": "2024-03-01T07:48:01.103Z",
  "networkType": "ethereum",
  "devdoc": {
    "kind": "dev",
    "methods": {},
    "version": 1
  },
  "userdoc": {
    "kind": "user",
    "methods": {},
    "version": 1
  }
}