{
  "contractName": "SimpleStorage",
  "abi": [
    {
      "inputs": [],
      "stateMutability": "nonpayable",
      "type": "constructor"
    },
    {
      "inputs": [
        {
          "internalType": "uint256",
          "name": "",
          "type": "uint256"
        }
      ],
      "name": "jsonData",
      "outputs": [
        {
          "internalType": "uint256",
          "name": "id",
          "type": "uint256"
        },
        {
          "internalType": "string",
          "name": "name",
          "type": "string"
        }
      ],
      "stateMutability": "view",
      "type": "function",
      "constant": true
    },
    {
      "inputs": [],
      "name": "owner",
      "outputs": [
        {
          "internalType": "address",
          "name": "",
          "type": "address"
        }
      ],
      "stateMutability": "view",
      "type": "function",
      "constant": true
    },
    {
      "inputs": [
        {
          "internalType": "uint256",
          "name": "_id",
          "type": "uint256"
        },
        {
          "internalType": "string",
          "name": "_name",
          "type": "string"
        }
      ],
      "name": "storeData",
      "outputs": [],
      "stateMutability": "nonpayable",
      "type": "function"
    },
    {
      "inputs": [],
      "name": "getAllData",
      "outputs": [
        {
          "components": [
            {
              "internalType": "uint256",
              "name": "id",
              "type": "uint256"
            },
            {
              "internalType": "string",
              "name": "name",
              "type": "string"
            }
          ],
          "internalType": "struct SimpleStorage.MyData[]",
          "name": "",
          "type": "tuple[]"
        }
      ],
      "stateMutability": "view",
      "type": "function",
      "constant": true
    },
    {
      "inputs": [],
      "name": "jsonDataLength",
      "outputs": [
        {
          "internalType": "uint256",
          "name": "",
          "type": "uint256"
        }
      ],
      "stateMutability": "view",
      "type": "function",
      "constant": true
    },
    {
      "inputs": [],
      "name": "getPath",
      "outputs": [
        {
          "internalType": "string",
          "name": "",
          "type": "string"
        }
      ],
      "stateMutability": "pure",
      "type": "function",
      "constant": true
    }
  ],
  "bytecode": "0x608060405234801561001057600080fd5b5073f5af1d3c9e7b969e258d2738b511d6e4fe9174256000806101000a81548173ffffffffffffffffffffffffffffffffffffffff021916908373ffffffffffffffffffffffffffffffffffffffff160217905550610ab7806100746000396000f3fe608060405234801561001057600080fd5b50600436106100625760003560e01c80632d10fa281461006757806349dc098414610085578063555b37be146100a15780638da5cb5b146100bf578063bf4fe987146100dd578063e1f2c0641461010e575b600080fd5b61006f61012c565b60405161007c91906107d5565b60405180910390f35b61009f600480360381019061009a919061059b565b610227565b005b6100a9610328565b6040516100b691906107f7565b60405180910390f35b6100c7610365565b6040516100d491906107ba565b60405180910390f35b6100f760048036038101906100f29190610572565b610389565b604051610105929190610854565b60405180910390f35b610116610445565b6040516101239190610839565b60405180910390f35b60606001805480602002602001604051908101604052809291908181526020016000905b8282101561021e57838290600052602060002090600202016040518060400160405290816000820154815260200160018201805461018d906109c9565b80601f01602080910402602001604051908101604052809291908181526020018280546101b9906109c9565b80156102065780601f106101db57610100808354040283529160200191610206565b820191906000526020600020905b8154815290600101906020018083116101e957829003601f168201915b50505050508152505081526020019060010190610150565b50505050905090565b60008054906101000a900473ffffffffffffffffffffffffffffffffffffffff1673ffffffffffffffffffffffffffffffffffffffff163373ffffffffffffffffffffffffffffffffffffffff16146102b5576040517f08c379a00000000000000000000000000000000000000000000000000000000081526004016102ac90610819565b60405180910390fd5b600060405180604001604052808481526020018381525090506001819080600181540180825580915050600190039060005260206000209060020201600090919091909150600082015181600001556020820151816001019080519060200190610320929190610452565b505050505050565b60606040518060400160405280600781526020017f6f6e652e74787400000000000000000000000000000000000000000000000000815250905090565b60008054906101000a900473ffffffffffffffffffffffffffffffffffffffff1681565b6001818154811061039957600080fd5b90600052602060002090600202016000915090508060000154908060010180546103c2906109c9565b80601f01602080910402602001604051908101604052809291908181526020018280546103ee906109c9565b801561043b5780601f106104105761010080835404028352916020019161043b565b820191906000526020600020905b81548152906001019060200180831161041e57829003601f168201915b5050505050905082565b6000600180549050905090565b82805461045e906109c9565b90600052602060002090601f01602090048101928261048057600085556104c7565b82601f1061049957805160ff19168380011785556104c7565b828001600101855582156104c7579182015b828111156104c65782518255916020019190600101906104ab565b5b5090506104d491906104d8565b5090565b5b808211156104f15760008160009055506001016104d9565b5090565b6000610508610503846108b5565b610884565b90508281526020810184848401111561052057600080fd5b61052b848285610987565b509392505050565b600082601f83011261054457600080fd5b81356105548482602086016104f5565b91505092915050565b60008135905061056c81610a6a565b92915050565b60006020828403121561058457600080fd5b60006105928482850161055d565b91505092915050565b600080604083850312156105ae57600080fd5b60006105bc8582860161055d565b925050602083013567ffffffffffffffff8111156105d957600080fd5b6105e585828601610533565b9150509250929050565b60006105fb838361075f565b905092915050565b61060c8161094b565b82525050565b600061061d826108f5565b6106278185610918565b935083602082028501610639856108e5565b8060005b85811015610675578484038952815161065685826105ef565b94506106618361090b565b925060208a0199505060018101905061063d565b50829750879550505050505092915050565b600061069282610900565b61069c8185610929565b93506106ac818560208601610996565b6106b581610a59565b840191505092915050565b60006106cb82610900565b6106d5818561093a565b93506106e5818560208601610996565b6106ee81610a59565b840191505092915050565b600061070660258361093a565b91507f4f6e6c7920746865206f776e65722063616e2063616c6c20746869732066756e60008301527f6374696f6e0000000000000000000000000000000000000000000000000000006020830152604082019050919050565b6000604083016000830151610777600086018261079c565b506020830151848203602086015261078f8282610687565b9150508091505092915050565b6107a58161097d565b82525050565b6107b48161097d565b82525050565b60006020820190506107cf6000830184610603565b92915050565b600060208201905081810360008301526107ef8184610612565b905092915050565b6000602082019050818103600083015261081181846106c0565b905092915050565b60006020820190508181036000830152610832816106f9565b9050919050565b600060208201905061084e60008301846107ab565b92915050565b600060408201905061086960008301856107ab565b818103602083015261087b81846106c0565b90509392505050565b6000604051905081810181811067ffffffffffffffff821117156108ab576108aa610a2a565b5b8060405250919050565b600067ffffffffffffffff8211156108d0576108cf610a2a565b5b601f19601f8301169050602081019050919050565b6000819050602082019050919050565b600081519050919050565b600081519050919050565b6000602082019050919050565b600082825260208201905092915050565b600082825260208201905092915050565b600082825260208201905092915050565b60006109568261095d565b9050919050565b600073ffffffffffffffffffffffffffffffffffffffff82169050919050565b6000819050919050565b82818337600083830152505050565b60005b838110156109b4578082015181840152602081019050610999565b838111156109c3576000848401525b50505050565b600060028204905060018216806109e157607f821691505b602082108114156109f5576109f46109fb565b5b50919050565b7f4e487b7100000000000000000000000000000000000000000000000000000000600052602260045260246000fd5b7f4e487b7100000000000000000000000000000000000000000000000000000000600052604160045260246000fd5b6000601f19601f8301169050919050565b610a738161097d565b8114610a7e57600080fd5b5056fea2646970667358221220d995da3eebe3ccb4adaf2d1a603c56a2c863bd40679619d24faf823e12c4892364736f6c63430008000033",
  "immutableReferences": {},
  "source": "pragma solidity ^0.8.0;\n\ncontract SimpleStorage {\n    struct MyData {\n        uint256 id;\n        string name;\n    }\n    address public owner;\n    MyData[] public jsonData;\n\n\n    constructor() {\n        owner = 0xF5AF1d3C9E7b969e258D2738b511d6E4Fe917425;\n    }\n\n    modifier onlyOwner() {\n        require(msg.sender == owner, \"Only the owner can call this function\");\n        _;\n    }\n\n\n    function storeData(uint256 _id, string memory _name) public onlyOwner{\n        MyData memory newData = MyData(_id, _name);\n        jsonData.push(newData);\n    }\n\n    function getAllData() public view returns (MyData[] memory) {\n        return jsonData;\n    }\n\n    function jsonDataLength() public view returns (uint256) {\n        return jsonData.length;\n    }\n    function getPath() public pure returns (string memory) {\n        return \"one.txt\";\n    }\n}",
  "sourcePath": "D:\\S8\\contracts\\SimpleStorage.sol",
  "compiler": {
    "name": "solc",
    "version": "0.8.0+commit.c7dfd78e.Emscripten.clang"
  },
  "schemaVersion": "3.4.16",
  "updatedAt": "2024-03-01T07:48:01.058Z",
  "networkType": "ethereum",
  "devdoc": {
    "kind": "dev",
    "methods": {},
    "version": 1
  },
  "userdoc": {
    "kind": "user",
    "methods": {},
    "version": 1
  }
}